:100000000C945D000C9485000C9485000C94850084
:100010000C9485000C9485000C9485000C9485004C
:100020000C9485000C9485000C9485000C9485003C
:100030000C9485000C9485000C9485000C9485002C
:100040000C9420030C9485000C9485000C9485007E
:100050000C9485000C9485000C9485000C9485000C
:100060000C9485000C94850000000008000201003B
:100070000003040700000000000000000000000072
:10008000250028002B0000000000240027002A0083
:10009000040404040404040402020202020203032E
:1000A0000303030301020408102040800102040836
:1000B0001020010204081020980411241FBECFEF65
:1000C000D8E0DEBFCDBF11E0A0E0B1E0E8E6F9E0A6
:1000D00002C005900D92AA32B107D9F721E0AAE239
:1000E000B1E001C01D92A738B207E1F710E0CDE5FD
:1000F000D0E004C02197FE010E94AC04CC35D107AA
:10010000C9F70E946A030C94B2040C94000090E0BA
:10011000FC01EC55FF4F2491FC01E057FF4F849107
:10012000882399F090E0880F991FFC01EA57FF4F50
:10013000A591B491FC01E458FF4F859194918FB73C
:10014000F894EC91E22BEC938FBF089590E0FC01C2
:10015000E859FF4F3491FC01EC55FF4F2491FC010D
:10016000E057FF4FE491EE2309F43BC0332339F10C
:10017000333091F038F43130A9F0323001F584B5E4
:100180008F7D12C0373091F03830A1F03430B9F49F
:10019000809180008F7D03C0809180008F77809355
:1001A00080000DC084B58F7784BD09C08091B000F8
:1001B0008F7703C08091B0008F7D8093B000F0E016
:1001C000EE0FFF1FE458FF4FA591B4918FB7F8943D
:1001D000EC91611103C020952E2301C02E2B2C938E
:1001E0008FBF08953FB7F89480912F01909130010F
:1001F000A0913101B091320126B5A89B05C02F3FD7
:1002000019F00196A11DB11D3FBFBA2FA92F982F3C
:100210008827820F911DA11DB11DBC01CD0142E0B7
:10022000660F771F881F991F4A95D1F708958F92FF
:100230009F92AF92BF92CF92DF92EF92FF926B01AB
:100240007C010E94F2004B015C01C114D104E10465
:10025000F104F1F00E94F200DC01CB018819990948
:10026000AA09BB09883E9340A105B10570F321E0BE
:10027000C21AD108E108F10888EE880E83E0981EC2
:10028000A11CB11CC114D104E104F10419F7DDCFA4
:10029000FF90EF90DF90CF90BF90AF909F908F90A6
:1002A0000895EF92FF920F931F93CF93DF93E82E61
:1002B000F62EC7E0D0E0042F10E098010C2E02C00B
:1002C000359527950A94E2F7B901617077278E2D4D
:1002D0000E94A60061E08F2D0E94A60060E08F2D95
:1002E0000E94A600219748F7DF91CF911F910F91AF
:1002F000FF90EF9008950F931F93CF93DF93182FE4
:10030000062F60E0809134010E94A600C0E0D0E09A
:100310002091360130E0C217D30784F4412F609159
:100320003501809133010E945101402F60913501C8
:10033000809133010E9451012196EACF60E08091C3
:1003400034010E94A60061E080913401DF91CF91D9
:100350001F910F910C94A600BF92CF92DF92EF9263
:10036000FF920F931F93CF93DF93C0E0D0E060E044
:10037000809134010E94A60007E311E06801E12C9E
:10038000F12CBC2EB3948091360190E0E816F9066A
:10039000B4F44B2D60913501809133010E945101DD
:1003A00040E060913501809133010E945101F601D6
:1003B0001082FFEFEF1AFF0ACC0EDD1EE4CF60E0E3
:1003C000809134010E94A60061E0809134010E9476
:1003D000A6002196C830D10551F6F80111928F017F
:1003E000F1E007381F07C9F7DF91CF911F910F91F7
:1003F000FF90EF90DF90CF90BF900895CF92DF9263
:10040000EF92FF920F931F93CF93962F082F10E038
:10041000F801ED5CFE4F442371F041E050E060E0F4
:1004200070E004C0440F551F661F771F9A95D2F7DE
:100430009481492B0EC041E050E060E070E004C0C0
:10044000440F551F661F771F9A95D2F740959481E8
:1004500049234483C82EC694C694C694D12CC82F71
:10046000C77060E0809134010E94A600E12CF12C5D
:10047000CF5F095C1E4F8091360190E0E816F906C7
:10048000FCF4EC14FD0451F44C2F60913501809183
:1004900033010E945101F801408108C040E06091A1
:1004A0003501809133010E94510140E06091350196
:1004B000809133010E945101FFEFEF1AFF0ADBCF59
:1004C00060E0809134010E94A60061E080913401D7
:1004D000CF911F910F91FF90EF90DF90CF900C94F0
:1004E000A6003F924F925F926F927F928F929F925F
:1004F000AF92BF92CF92DF92EF92FF920F931F9332
:10050000CF93DF936C015B01FB01E080F12C418014
:10051000512CC0E0D0E0F8E04F16510409F05EC065
:10052000CE15DF050CF07AC08E010C0D1D1D0035B7
:10053000110508F047C0F501EC0FFD1F52808C2F0C
:100540008C0D882E869486948694912C8770482EE4
:1005500060E0809134010E94A600612C712C4394CC
:100560008091360190E068167906F4F468147904F5
:1005700049F4442D60913501809133010E9451016D
:10058000452D08C040E060913501809133010E9403
:10059000510140E060913501809133010E94510189
:1005A0008FEF681A780ADCCF60E0809134010E94F6
:1005B000A60061E0809134010E94A600F801ED5C84
:1005C000FE4F54822196ACCFE0E56E167104A0F088
:1005D0000F5F1F4F04151505BCF32196CE15DF05DF
:1005E000ECF400E010E03E016C0C7D1C45018C0E2B
:1005F0009D1E3C2E3C0CEECF083011054CF7F4014B
:10060000428150E0002E02C0559547950A94E2F7CA
:100610004170602F832D0E94FE01DACFDF91CF91D0
:100620001F910F91FF90EF90DF90CF90BF90AF9010
:100630009F908F907F906F905F904F903F90089524
:100640001F920F920FB60F9211242F933F938F9307
:100650009F93AF93BF9380912B0190912C01A09118
:100660002D01B0912E0130912A0123E0230F2D3767
:1006700020F40196A11DB11D05C026E8230F0296A6
:10068000A11DB11D20932A0180932B0190932C0171
:10069000A0932D01B0932E0180912F0190913001F4
:1006A000A0913101B09132010196A11DB11D80933D
:1006B0002F0190933001A0933101B0933201BF918B
:1006C000AF919F918F913F912F910F900FBE0F90FF
:1006D0001F901895789484B5826084BD84B581603C
:1006E00084BD85B5826085BD85B5816085BD8091FD
:1006F0006E00816080936E00109281008091810075
:10070000826080938100809181008160809381006C
:10071000809180008160809380008091B10084602E
:100720008093B1008091B00081608093B00080918F
:100730007A00846080937A0080917A00826080934E
:100740007A0080917A00816080937A0080917A00AB
:10075000806880937A001092C100809133010E94DA
:100760008700809135010E948700809134010E94AA
:10077000870061E0809135010E94A60067E08BE070
:100780000E947B0160E089E00E947B0161E08CE0D7
:100790000E947B0160E08FE00E947B010E94AC011F
:1007A0006FE08AE00E947B0162E08AE00E947B01A8
:1007B00080E0E82E80E0F82E41E062E086E00E94D2
:1007C000FE0168EE73E080E090E00E94170141E0D6
:1007D00063E086E00E94FE0168EE73E080E090E056
:1007E0000E9417010E94AC01C0E041E06C2F8C2FE9
:1007F0000E94FE016CE271E080E090E00E9417012F
:10080000CF5FC83091F70E94AC0164E271E082E0F2
:1008100090E00E94710268EE73E080E090E00E9438
:1008200017016EE171E082E090E00E94710268EED3
:1008300073E080E090E00E94170164E171E080E0E5
:1008400090E00E94710268EE73E080E090E00E9408
:1008500017016AE071E080E090E00E94710268EEAA
:1008600073E080E090E00E94170160E071E080E0BA
:1008700090E00E94710268EE73E080E090E00E94D8
:10088000170108E010E0E8E3F1E08191DF01129741
:100890008C9381E0E838F807C1F7C0E0D0E060E071
:1008A000809134010E94A6005E01C12CD12C9C2EA7
:1008B00093948091360190E0C816D906C4F4492D6E
:1008C00060913501809133010E945101F501ED5C89
:1008D000FE4F448160913501809133010E945101A6
:1008E00088E0A80EB11C8FEFC81AD80AE2CF60E0EA
:1008F000809134010E94A60061E0809134010E9441
:10090000A6002196C830D10551F66CE271E080E076
:1009100090E00E9417010150110909F0B4CF0E9424
:10092000AC01E114F10409F447CF0E94000044CF68
:1009300087E08093330186E08093340185E08093E3
:10094000350181E080933601E7E3F1E0119281E027
:10095000E738F807D9F70895EE0FFF1F0590F491D7
:08096000E02D0994F894FFCF8B
:1009680008083C42A59191A5423C08083C42959153
:100978009195423C08083C4295A1A195423C040847
:0A0988007F49493604087E11117EF4
:00000001FF
